:040000008A110F282A
:10000800FE00030E83120313A0000408A1000A08CF
:10001800A2008A11A12A8A11112883136D30840045
:1000280073308A11BA248A11A0308400B8308A113A
:10003800BA248A1183018A1107298B1383120313A7
:100048006F08E800EA0135286A08A03E8400831397
:100058000008C3006A08483E840043088000013055
:10006800EA0768086A02031C3A283B282828EF0197
:100078008B176808483E840083138001F228EB013F
:100088000030B8000030B7000330B600FF30B500CC
:100098006B088A1116248A11831203132408C300DB
:1000A8002508C400C501C6014608AB004508AA00DA
:1000B8004408A9004308A8000030AF000030AE0093
:1000C8001330AD008830AC008A11EB228A118312FC
:1000D80003132B08BC002A08BB002908BA0028080B
:1000E800B9008A11ED218A11831203136B08C70026
:1000F8004707603E8400350883138000840A360869
:1001080080000130EB0704306B02031C8C288D281B
:1001180044281830A5008A115D248A11831203131C
:100128006108B2006008B1008A1153228A110530B3
:1001380083120313A5008A115D248A118312031305
:100148006308B2006208B1008A1153228A110A308A
:1001580083120313A5008A115D248A1183120313E5
:100168006508B2006408B1008A1153228A110F3061
:1001780083120313A5008A115D248A1183120313C5
:100188006708B2006608B1008A1153228A110A3042
:100198008A11A7248A1106294930AA008A117A21CE
:1001A8008A11831203132A08E90065306902031CC7
:1001B800DE28DF28E1286430E90069088A117723FE
:1001C8008A1106294930AA008A117A218A118312D4
:1001D80003132B08EE002A08ED0006294808463AC2
:1001E8000319D0280B3A0319E6281F3A03194328A4
:1001F800343A0319D0280B3A0319E6281F3A031991
:100208004328062908008A1177248A118A11B12403
:100218008A118A1190248A118A119C248A118A11C0
:1002280084248A11831603138C160B178B1714302A
:1002380083120313A5008A115D248A118312031304
:1002480070080319282929292D29F0018A1121204C
:100258008A118312031372080319332934292229B6
:10026800F2016E08803AFF0080307F02031D3E29AC
:1002780001306D02031C412942295B2983120313B3
:100288007108013EF1000330F1057108013E840058
:100298008A113C248A11EC000608F0396C048600A7
:1002A800FF30ED070318EE0AFF30EE07222983120C
:1002B8000313EE1F6029612922297108033EF1000A
:1002C8000330F1057108013E84008A113C248A112B
:1002D800EC000608F0396C0486000130ED070318BD
:1002E800EE0A0030EE0722298A110F288312031321
:1002F800AF01B001AE0182290130AA072A088400A3
:1003080020308313000603198A298B2980292A089B
:100318008400F7300007AC0005302C02031C952937
:10032800962980292A0884002D300006031D9D295E
:100338009E29A3290130AE000130AA07CC292A083A
:1003480084002B300006031DAA29AB29CC29A0293B
:100358002A0884003008A5002F08A4000A30A60047
:100368000030A7008A11EF238A118312031325088E
:10037800AD00831300082402AC00031CAD032C0855
:10038800303EAF002D080318013E003EB000A02902
:100398002A088400D0300007AC000A302C02031C65
:1003A800D629D729AC292E08031DDB29DC29E82901
:1003B8002F09AC003009AD00AC0A0319AD0A2C08AE
:1003C800AA002D08AB00EC293008AB002F08AA00C2
:1003D8000800003083120313C1000030C000003051
:1003E800BF000030BE00380837043604350403194E
:1003F800FE29FF294A2A0130C2000D2A0130BD001A
:100408000310B50DB60DB70DB80DBD0B042A01309C
:10041800C207B81F102A112A022A0130BD00031092
:10042800BE0DBF0DC00DC10DBD0B132A38083C020F
:10043800031D282A37083B02031D282A36083A02DA
:10044800031D282A35083902031C2B2A2C2A3B2A8B
:100458003508B9023608031C360FBA023708031CE0
:10046800370FBB023808031C380FBC023E1401309A
:100478000310B80CB70CB60CB50CFF3E031D3C2A94
:100488000130C202031D492A4A2A112A4108B8002C
:100498004008B7003F08B6003E08B50008008312C0
:1004A8000313B90131083204031D5B2A5C2A882A28
:1004B80030308A11A7248A11A02A3908333E8400D3
:1004C8000A30A4000030A5003208A7003108A600B1
:1004D8008A11B5238A11831203132408303E83132B
:1004E80080000130B9070A30AA000030AB0032089A
:1004F800AD003108AC008A1133238A11831203132B
:100508002B08B2002A08B10031083204031D8D2AD5
:100518008E2A612A992A0130B9023908333E8400AB
:10052800831300088A11A7248A1183120313390838
:10053800031D9F2AA02A8F2A08000B1DA42AA52A7A
:10054800AA2A0B11643081000130F2008C1EAD2AFA
:10055800AE2AE22A981CB12AB22AB42A181218160E
:100568001A08A3000A3023060319BB2ABC2AC22A88
:100578000D302306031DC12AC22ACF2A6F0803198A
:10058800C62AC72AE22A7008031DCB2ACC2AE22AE7
:100598000130F000E22A7008031DD32AD42AE22A87
:1005A80017306F020318D92ADA2AE22A6F08A03E08
:1005B80084002308831380000130EF0722088A0093
:1005C80021088400200E8300FE0E7E0E09000030F4
:1005D80083120313B4000030B3000030B2000030BF
:1005E800B100281CF82AF92A102B2C08B1072D086D
:1005F80003110318013E0319022BB2072E08031139
:100608000318013E0319092BB3072F080311031818
:10061800013E0319102BB4070130B0000310AC0DD4
:10062800AD0DAE0DAF0DB00B122B01300310AB0C9E
:10063800AA0CA90CA80CFF3E031D1A2B2B082A0490
:1006480029042804031D292B2A2BF52A3408AB007A
:100658003308AA003208A9003108A800080083124C
:100668000313AE01AF012A082B0403193C2B3D2BC1
:10067800722B0130B000492B01300310AA0DAB0DCD
:10068800FF3E031D412B0130B007AB1F4C2B4D2BF8
:10069800402B01300310AE0DAF0DFF3E031D4E2B56
:1006A8002B082D02031D5A2B2A082C02031C5D2B34
:1006B8005E2B652B2A08AC022B08031CAD03AD0288
:1006C8002E1401300310AB0CAA0CFF3E031D662B41
:1006D8000130B002031D712B722B4D2B2F08AB007C
:1006E8002E08AA00080083120313B3006430AA007E
:1006F8000030AB003308B100B2013108A400320861
:10070800A500FA30A6000030A7008A11EF238A114D
:10071800831203132508AD002408AC008A11332383
:100728008A11831203132B08B5002A08B400350870
:10073800B2003408B1000310B20CB10C0310B20CB3
:10074800B10C3108950034080339B10004300310A6
:10075800B10DFF3E031DAB2B1708CF3931049700AD
:10076800080083120313240825040319BC2BBD2B8E
:10077800EA2B0130A800C92B01300310A40DA50DE8
:10078800FF3E031DC12B0130A807A51FCC2BCD2B85
:10079800C02B25082702031DD32B24082602031C7F
:1007A800D62BD72BDD2B2408A6022508031CA7036C
:1007B800A70201300310A50CA40CFF3E031DDE2B7D
:1007C8000130A802031DE92BEA2BCD2B2708A50031
:1007D8002608A400080083120313A801A901241CF9
:1007E800F62BF72BFD2B2608A8070318A90A2708BC
:1007F800A90701300310A60DA70DFF3E031DFE2B10
:1008080001300310A50CA40CFF3E031D052C240881
:100818002504031D102C112CF32B2908A5002808EA
:10082800A400080083120313A7002708A6000230BB
:100838000310A60DFF3E031D1C2C0310260D413886
:100848009F00093083120313A600A60B292C000071
:10085800831203131F151F19322C332C2F2C1E083B
:10086800A500831603131E0883120313A4000800AF
:1008780004308A000408840A8207003403340634EA
:100888000C3409342C34563431343A3400342C3492
:10089800563432343A3400342C34563433343A34FF
:1008A80000344F344B340A340034563430343A343C
:1008B80000346A2C250884008A113C248A118A1184
:1008C800A7248A11013083120313A5078312031387
:1008D800250884008A113C248A11003A031D752CCE
:1008E800762C5E2C08003F308316031385008601A2
:1008F8008030870083120313850186018701080071
:10090800831603130108C039043881006430831248
:10091800031381008B160800F93083160313920025
:100928008312031395010C309700053092000800DC
:1009380019308316031399002430980090308312DD
:1009480003139800080083120313A4000C1EAD2C97
:10095800AE2CAA2C240899000800803083160313B3
:100968009F004130831203139F0008006400800138
:0C097800840A0406031900340406BB2C9A
:02400E00713F00
:00000001FF
