:040000008A110F282A
:10000800FE00030E83120313A0000408A1000A08CF
:10001800A2008A11D9298A1111288A1149238A1123
:10002800F5008A114A238A11F6008A114B238A1196
:10003800F7008A114C238A11F8008313A03084003A
:10004800D8308A1141238A116B30840075308A11A7
:1000580041238A1183018A1131288A11A4228A1125
:10006800831203136F0803193A283B284228EF012B
:100078008A11E9208A118A1167228A1183120313CF
:100088007408031D482849284A283428F40105091A
:10009800E8000F30E805EA0104306A02031C55281D
:1000A80056285728D8280130E6006A0A5D28031028
:1000B800E60DFF3E031D5B286608E7006808670534
:1000C80003196728682878286A086B3E840003307B
:1000D8008313000203187128722882286A086B3E6D
:1000E80084000130800782286A086B3E84008313ED
:1000F80080016A08753E8400013080006A086B3E02
:10010800840003300006031D8A288B28D3286A0838
:10011800753E84000008031992289328D3286A089A
:10012800753E84008001C5280730A5008A111D236B
:100138008A11D3280C30A5008A111D238A11D328CF
:1001480073080319A828AA280130AB280030F30047
:100158007308031DB028B128B4281130E900B62867
:100168000130E9006908A5008A111D238A11D328E6
:100178007208013EF2000330F2058A1167228A11E3
:10018800D3286A08003A03199828013A03199E28C7
:10019800033A0319A428013A0319BC28D3280130CB
:1001A80083120313EA0750280130F1076430710203
:1001B800031CDF28E0283428F1011530A5008A1136
:1001C8001D238A1134288A110F288B1383120313D5
:1001D8007008E200E301FD286308A03E8400831351
:1001E8000008B1006308323E840031088000013005
:1001F800E30762086302031C02290329F028F001BF
:100208008B176208323E8400831380015630320611
:1002180003190F291029112965293230E500E40155
:1002280017290130E50765088400000803191D290E
:100238001E292629650884003A300006031D252951
:1002480026291529650884000008031D2C292D2955
:100258002E2965290130E5076508AA008A1166215B
:100268008A11831203136408B1003107D03E840059
:100278002A0883138000840A2B088000452901304E
:10028800E50765088400000803194B294C295429FF
:10029800650884002C300006031D5329542943297E
:1002A80065088400000803195A295B295D29013073
:1002B800E5070130E40704306402031C642965295A
:1002C8001729080083120313AF01B001AE016E298C
:1002D8000130AA072A088400203083130006031976
:1002E800762977296C292A088400F7300007AC00A2
:1002F80005302C02031C812982296C292A088400D4
:100308002D300006031D89298A298F290130AE0066
:100318000130AA07B8292A0884002B300006031DDB
:1003280096299729B8298C292A0884003008A5001D
:100338002F08A4000A30A6000030A7008A11CD2299
:100348008A11831203132508AD00831300082402C1
:10035800AC00031CAD032C08303EAF002D08031879
:10036800013E003EB0008C292A088400D0300007E6
:10037800AC000A302C02031CC229C32998292E0874
:10038800031DC729C829D4292F09AC003009AD009D
:10039800AC0A0319AD0A2C08AA002D08AB00D8290D
:1003A8003008AB002F08AA0008000B1DDC29DD2946
:1003B800E2290B11643081000130F4008C1EE5291C
:1003C800E6291A2A981CE929EA29EC29181218168C
:1003D8001A08A3000A3023060319F329F429FA2975
:1003E8000D302306031DF929FA29072A7008031975
:1003F800FE29FF291A2A6F08031D032A042A1A2A2C
:100408000130EF001A2A6F08031D0B2A0C2A1A2A3A
:100418002F3070020318112A122A1A2A7008A03ED7
:1004280084002308831380000130F00722088A0023
:1004380021088400200E8300FE0E7E0E0900831220
:100448000313A801A9012408250403192C2A2D2A1D
:10045800622A0130AA00392A01300310A40DA50D23
:10046800FF3E031D312A0130AA07A51F3C2A3D2A59
:10047800302A01300310A80DA90DFF3E031D3E2AA6
:1004880025082702031D4A2A24082602031C4D2A90
:100498004E2A552A2408A6022508031CA703A702EA
:1004A800281401300310A50CA40CFF3E031D562A86
:1004B8000130AA02031D612A622A3D2A2908A500E3
:1004C8002808A4000800831203137208AB002B0746
:1004D800D03E840083130008AC00840A0008AD00F5
:1004E8007130A4000230A5002D08A7002C08A60032
:1004F8008A1123228A11831203132408AF000930BA
:100508002F02031C882A892A8B2A0830AF00AE01E3
:10051800B0019B2A0130AB00300A942A0310AB0DBE
:10052800FF3E031D922A2B08AE040130B0072F08A6
:100538003002031CA02AA12A8E2A2E088600080051
:100548000F308316031385008601803087008312DD
:1005580003138501860187010730831603139F0063
:1005680019309900243098009030831203139800B2
:10057800831603130108C0390438810064308312DC
:10058800031381008B16831603138C160B178B1716
:10059800080083120313A801A901241CD42AD52A10
:1005A800DB2A2608A8070318A90A2708A907013083
:1005B8000310A60DA70DFF3E031DDC2A0130031012
:1005C800A50CA40CFF3E031DE32A24082504031DE3
:1005D800EE2AEF2AD12A2908A5002808A400080035
:1006000003308A000408840A8207003446343134F7
:10061000303430340A3400344D342B3431340A341D
:1006200000344D342D3431340A34003446343034FF
:100630000A34003452340A3400342A2B250884004A
:100640008A1100238A118A1137238A1101308312FB
:100650000313A50783120313250884008A110023BE
:100660008A11003A031D352B362B1E2B08008312EE
:100670000313A4000C1E3D2B3E2B3A2B240899009B
:10068000080064008001840A04060319003404068B
:0A069000422B01340134013401341F
:02400E00713F00
:00000001FF
